:0200000460009A
:100000004643464200000156000000000103030081
:1000100000000000000000000000000000000000E0
:1000200000000000000000000000000000000000D0
:1000300000000000000000000000000000000000C0
:1000400000000000010408000000000000000000A3
:10005000000000010000000000000000000000009F
:100060000000000000000000000000000000000090
:100070000000000000000000000000000000000080
:10008000EB04180A063204260000000000000000FD
:10009000050404240000000000000000000000002F
:1000A0000000000000000000000000000000000050
:1000B0000604000000000000000000000000000036
:1000C0000000000000000000000000000000000030
:1000D00020041808000000000000000000000000DC
:1000E0000000000000000000000000000000000010
:1000F0000000000000000000000000000000000000
:10010000D8041808000000000000000000000000F3
:100110000204180804200000000000000000000095
:1001200000000000000000000000000000000000CF
:10013000600400000000000000000000000000005B
:1001400000000000000000000000000000000000AF
:10015000000000000000000000000000000000009F
:10016000000000000000000000000000000000008F
:10017000000000000000000000000000000000007F
:10018000000000000000000000000000000000006F
:10019000000000000000000000000000000000005F
:1001A000000000000000000000000000000000004F
:1001B000000000000000000000000000000000003F
:1001C000000100000010000001000000000000001D
:1001D000000001000000000000000000000000001E
:1001E000000000000000000000000000000000000F
:1001F00000000000000000000000000000000000FF
:10020000FFFFFFFFFFFFFFFFFFFFFFFFFFFFFFFFFE
:10021000FFFFFFFFFFFFFFFFFFFFFFFFFFFFFFFFEE
:10100000D100204321160060000000000000000015
:10101000201000600010006000C4066000000000A6
:101020000000006000D0060000000000FFFFFFFF8E
:10103000FFFFFFFFFFFFFFFFFFFFFFFFFFFFFFFFC0
:10104000FFFFFFFFFFFFFFFFFFFFFFFFFFFFFFFFB0
:10105000FFFFFFFFFFFFFFFFFFFFFFFFFFFFFFFFA0
:10106000FFFFFFFFFFFFFFFFFFFFFFFFFFFFFFFF90
:10140000884207D0904205D251F8043B40F8043B93
:101410008242F9D8704700BF884204D2002340F8C6
:10142000043B8142FBD870472DE988481CF00AFC38
:101430000824604B604AC3F8544160496048FFF794
:10144000DFFF604A60496148FFF7DAFF60496148A1
:10145000FFF7E2FF604C4FF0E0214FF470000023F3
:101460005E4AC1F8880D44F823200133B02BFAD12D
:101470005B4B80215B4A03F8011B9342FBD14FF089
:10148000E0254C4E4FF08039DFF888B1DFF888A1B5
:101490004FF0FF31C5F8084D0027C6F80491C6F893
:1014A00000B1C6F8F490C6F8F0A0D5F8243DDFF8F6
:1014B0006C8143F4E0234C4AC5F8243DD8F81C3035
:1014C00023F07F0343F04003C8F81C30D8F82430E1
:1014D00023F07F0343F04003C8F824309166D166BF
:1014E000116751671CF0B6FB404B4149A363414B68
:1014F000E36363236B610323AF612B613E4BC5F84C
:10150000203DD5F8FC3D43F08073C5F8FC3D3B4BD6
:101510001A6842F001021A605B680B601CF016FC4E
:10152000C6F804913648C6F800B1C6F8F490C6F87B
:10153000F0A01CF099FFD8F86C10324B324A41F4FD
:101540004051C8F86C101F60C3F80871C3F81871D7
:10155000C3F82871C3F83871936BDB0708D442F6DF
:1015600015632A4951651365936B43F00103936337
:10157000254A274C936843F0011393601CF04AFD01
:101580001CF0FAFE1CF010FC1CF05EFB2368132B11
:10159000FCD91CF0A1FC2368B3F5967FFBD31CF0AB
:1015A00057FB1CF053FB1CF0DFFD1CF06DFE30BF41
:1015B000FDE700BF00800D40447103002CA10260D4
:1015C00000000000C0AE0020741206600000002081
:1015D00020A90220C0AE002000AC0020751102003E
:1015E00000E400E0A0E400E000C00A40C5EE010015
:1015F00050A602202DEF010000002020001000E086
:101600000046C3230040084000400D400000C05683
:1016100054A602201B1018200C0D111300C00F40FF
:10162000074B4FF42A01074A07485A641864074ACF
:1016300099639546BFF34F8FBFF36F8FFFF7F4FEAB
:1016400000C00A40FFBFAAAA0700200000800420B3
:1016500008B51B201CF084FE014B01221A7008BD46
:10166000C6A8022008B512201CF066FF003818BF7B
:10167000012008BD08B514201CF05EFF003818BF1B
:10168000012008BD08B503201CF056FFA0F10100A1
:10169000B0FA80F0400908BD08B504201CF04CFFEA
:1016A000A0F10100B0FA80F0400908BD08B508209B
:1016B0001CF042FF652828BF322008BD214BB7EE41
:1016C000007A214A2148126810B493F87A30204CED
:1016D00001FB03F3D4ED006A07EE903A0378F8EECD
:1016E000E77A52F823309A6967EEA67AF4EEC77A61
:1016F000F1EE10FA0EDD17490024174B084672B6BA
:10170000D361002390631376C2E90C4162B65DF8A1
:10171000044B7047BFEE007AF4EEC77AF1EE10FA90
:101720000BD49FED0E7A002467EE877AFDEEE77A00
:1017300017EE903A98100146E1E709490024094B59
:101740000846DCE75CA50020DC8A02209DA8022078
:10175000C038002000C0FF1F0000FF7F00FEFF4ECA
:10176000004000E00000018010B508461CF00CFEAF
:101770000F4BF7EE007A00F1320493ED007A43B29A
:101780000C49E4B206EE903A0B4A08200B70F8EED2
:10179000E66AE6EE877AC2ED007A1CF0CDFE84425E
:1017A00000D110BD21460820BDE810401CF04CBD02
:1017B00068380020D1A8022000A8002008460D4962
:1017C00010B51CF055FD38B904460B4B14201C70A5
:1017D0001CF0B2FE40B910BD074B012414201C7050
:1017E0001CF0AAFEA042F6D021461420BDE810400D
:1017F0001CF02ABD84840020CDA8022008460D4993
:1018000010B51CF035FD38B904460B4B12201C7086
:101810001CF092FE40B910BD074B012412201C7031
:101820001CF08AFEA042F6D021461220BDE81040EE
:101830001CF00ABD84840020C7A802200846114974
:1018400010B51CF015FD40B904460F4B0320C3F83A
:10185000F8401CF071FE78B910BD0B4B03200B4A09
:10186000C3F8F8201CF068FE0128F5D00121032000
:10187000BDE810401CF0E8BC21460320BDE8104044
:101880001CF0E2BC8484002008D5002040B4002075
:1018900008460D4910B51CF0EBFC38B904460B4B5B
:1018A00004201C701CF048FE40B910BD074B0124F9
:1018B00004201C701CF040FEA042F6D021460420FB
:1018C000BDE810401CF0C0BC84840020E5A80220C4
:1018D000C16170472DE9F8432B4E00242B4F33682C
:1018E0003A7853F82280D8F81C20D8F8200088F8DD
:1018F0005040904245D02146A14652F821502B7CC1
:101900006BB1286885F8109085F812901CF0CCFD1A
:10191000286800F6F8101CF0C7FDD8E9072001344C
:10192000831AE4B2B4EBA30F2146E6D333683A78C6
:1019300053F82200D0E90743A34222D000221546E3
:10194000134654F82510096872B6C1E908330B77BD
:101950000B6462B6C16951F82510096872B6C1F806
:10196000183AC1F81C3A81F8143AC1F8383A62B60C
:101970000132D0E90741D2B2091B1546B2EBA10FE3
:10198000DFD3BDE8F88300BFDC8A02209DA80220D7
:10199000DFED197AB4EEE70A10B5F1EE10FA88B06F
:1019A00004461CD5FDEEC07A0A22684617EE901A4E
:1019B0001CF0EEFD694604A81CF0BAFD04A80F490E
:1019C0001CF09AFC014620461CF0EEFC04A81CF01A
:1019D0008FFB68461CF044FD204608B010BD80EE29
:1019E000270A022168461CF077FB694604A81CF010
:1019F0009FFD034904A8E3E700007A44888400209F
:101A00008C84002010B504684CB120461CF0B8FB53
:101A10000146204689B2BDE810401CF081BB014C54
:101A2000F3E700BF189C00201E4B1B7803B97047DA
:101A30001D4A01EB81011D4B10B596B052F82140B3
:101A400053F8201068461CF0BFFB0A2208A9204664
:101A50001CF0E2FB014668461CF05AFB144BD3F81D
:101A6000840450B10024014601236A4608A8089462
:101A70001CF0EEFC88B916B010BDD3F8881400290C
:101A8000F9D0149001236A4608A81CF00DFC002828
:101A9000F1D008A81CF0B4FCEDE708A81CF030FB5E
:101AA000E9E700BFA9A80220288B0220B058002037
:101AB000806F02200A4B30B50D4685B053F82010D8
:101AC000104614461CF080FB0A2201A928461CF08F
:101AD000A3FB014620461CF01BFB05B030BD00BF38
:101AE000B0580020064B10B50C4653F82010104695
:101AF0001CF0D6FB2146BDE810401CF065BB00BFC2
:101B0000B058002070B5064686B0041D00F60425C6
:101B10002046143400211CF087FBAC42F8D100248D
:101B2000194DC6F8004AD5F8003A4BB3234609E0F0
:101B3000013402A81CF094FCD5F8002AE4B29442C7
:101B400023461DD203EB830302A805EB830155F85E
:101B50002330043101931CF027FCD6F8003A7F2B88
:101B6000E6D803EB8302013302A9C6F8003A06EB7C
:101B70008200019B043046F822301CF0E1FAD7E7DE
:101B8000304606B070BD00BF288B022000B5A1B062
:101B90008022064968461CF03FFC802269460448C2
:101BA0001CF03AFC21B05DF804FB00BF080F0020D8
:101BB0005CA5002030B40E4DD5F8004A84B1002356
:101BC0001A468B4203F1010C02EB820203D055F856
:101BD0002220824208D05FFA8CF3A3421A46F0D347
:101BE0004FF0FF3030BC704758B230BC704700BF78
:101BF000288B0220434B1B78002B6DD02DE9F0473A
:101C0000414F96B03E68002E5FD0D7F8003A002BC7
:101C10003CD03E4B00246D46DFF8F88053F820900E
:101C2000A2460FE0CDF820A01CF012FC00284FD1F6
:101C30000134D7F8003AE4B29C4204EB84032BD27F
:101C400057F82360494628461CF0BEFA0A2208A924
:101C500030461CF0E1FA014628461CF059FAD8F843
:101C6000846401232A4608A83146002EDAD1D8F828
:101C7000881401230029DBD008A814961CF014FB5B
:101C80000028D5D008A81CF0BBFBD1E71F4B6D4640
:101C9000DFF8808053F82090494628461CF000FB6E
:101CA0001B4A0346D8F8844403CA596011889278C5
:101CB000186019819A7284B1002001232A462146B6
:101CC000089008A81CF0C4FBB8B916B0BDE8F087AE
:101CD00008A81CF015FAABE77047D8F8881400295B
:101CE000F3D001232A4608A814941CF0DDFA00283A
:101CF000EBD008A81CF084FBE7E708A81CF000FA6A
:101D0000E3E700BFA9A80220288B0220B0580020DA
:101D100090840020806F0220074B084AD3F8003AD5
:101D20001078013B984203D20130C0B21070704766
:101D300000201070704700BF288B0220AEA8022040
:101D4000044B187810B9044AD2F8000A0138C0B21E
:101D500018707047AEA80220288B0220054B187817
:101D6000062803D80130C0B21870704700201870E0
:101D7000704700BFACA80220044B187818B1013896
:101D8000C0B218707047072018707047ACA80220C6
:101D9000054B1878062803D80130C0B21870704778
:101DA00000201870704700BFCEA80220044B18789E
:101DB00018B10138C0B2187070470720187070470A
:101DC000CEA802202DE9F04780468A46174699465C
:101DD0009DF8205008249DF8246017E005F00101CB
:101DE0006D081CF029FB06F00101504676081CF036
:101DF00023FB012138461CF01FFB002138461CF054
:101E00001BFB04F1FF3C1CF0FF040FD0E909404626
:101E1000B9F1000FE2D01CF00FFB5046F1096D0044
:101E20007600EDB2F6B21CF007FBE2E7BDE8F08702
:101E300070B504460E461A2000211CF0FDFA012C54
:101E400028D0022C07D0002C48D001211A20BDE850
:101E500070401CF0F1BA082400212B201CF0ECFA91
:101E600000212C201CF0E8FA012109201CF0E4FAE2
:101E7000002109201CF0E0FA631E13F0FF04EBD1EF
:101E8000284A0121284B1A2014701C70BDE87040AC
:101E90001CF0D2BA254B082413F8165000212B2031
:101EA0001CF0CAFA2C20E9091CF0C6FA012109200D
:101EB0006D001CF0C1FA00210920EDB21CF0BCFA43
:101EC000631E13F0FF04E9D1174A0121154B1A20B4
:101ED00016701C70BDE870401CF0AEBA134B08249D
:101EE00013F81650E9092B201CF0A6FA00212C202B
:101EF0006D001CF0A1FA01210920EDB21CF09CFA42
:101F0000002109201CF098FA631E13F0FF04E9D1A8
:101F1000044A0121044B1A2016701C70BDE8704061
:101F20001CF08ABAB0A80220ADA8022014550020E7
:101F300070B50C46054600211A200826EDB2E4B221
:101F40001CF07AFAE9092B201CF076FA2C20E10922
:101F5000013E1CF071FA012109206D001CF06CFAA1
:101F60000021092064001CF067FA16F0FF06EDB2AC
:101F7000E4B2E7D101211A20BDE870401CF05CBA40
:101F8000002108B50846FFF7D3FF00230249034AA2
:101F90000B70137008BD00BFB0A80220ADA80220CE
:101FA00088B9114A114B10B41078114C33F8112034
:101FB00033F81000217810445DF8044B13F9111028
:101FC00040B2FFF7B5BF0A4A084B92F800C0064876
:101FD00033F8112033F81C100078114413F9100065
:101FE00049B2FFF7A5BF00BFB0A8022014550020DA
:101FF000ADA80220F8B51546D8B9164F164C3A7858
:10200000164E34F8113014F91210327834F81200E8
:10201000184440B2FFF78CFF28461CF065F93A7867
:10202000337814F9121014F91300BDE8F840FFF7E3
:102030007FBF084F084C3A7834F81130074E34F817
:1020400012101944337849B214F91300FFF770FFE6
:10205000E2E700BFADA8022014550020B0A802207E
:1020600010B5044600211820FFF762FF20461CF03F
:102070003BF900212420FFF75BFF20461CF034F9D8
:1020800000214220FFF754FF20461CF02DF90021CB
:102090006FF07E00FFF74CFF20461CF025F9002171
:1020A0000846FFF745FF20461CF01EF96FF07E0141
:1020B0000020FFF73DFF20461CF016F942210020CA
:1020C000FFF736FF20461CF00FF924210020FFF710
:1020D0002FFF20461CF008F918210020FFF728FFE9
:1020E00020461CF001F90021BDE810400846FFF72A
:1020F0001FBF00BF70B5064688B01A200D460121EB
:1021000014461CF031F9012109201CF02DF90121A0
:102110002C201CF029F901212B201CF025F9042189
:102120004A481CF045F90023CDE90433CDE90633D4
:10213000B3683BB10222314604A89847D6E902327F
:10214000CDE9063204A941481BF0BEFF069B1BB136
:1021500004A90322084698470023AE68CDE904335A
:10216000CDE906333EB10222294604A8B047D5E99D
:102170000232CDE9063204A934481CF061F8069B0E
:102180001BB104A90322084698470023A5680093C1
:102190000393CDE901333DB1022221466846A847A9
:1021A000D4E90232CDE90232294D04AC06AE28460C
:1021B0001CF072F80021D5E90603CDE904032B6A6F
:1021C000C0B206931CF0D0F8A64207D054F8040F12
:1021D0000021C0B21CF0C8F8A642F7D1AC6A0121B8
:1021E00095F824001CF0C0F80121E0B21CF0BCF806
:1021F0000023029CCDE90433CDE906333CB1022231
:10220000694604A8A047DDE90232CDE9063204A9F7
:102210000F481CF055F8069B1BB104A90322084681
:102220009847029B1BB16946032208469847322013
:10223000FFF716FF02211B201CF096F80422054927
:102240001B2008B0BDE870401BF072BFF48902206B
:10225000CC8602205116006008B509201CF06CF9EC
:10226000A0F16F00B0FA80F0400908BD092008B560
:102270001CF062F96F2800D108BD6F210920BDE86C
:1022800008401BF0E1BF00BF08B512201CF054F954
:1022900040B208BD08B514201CF04EF940B208BD8C
:1022A00010B5044612201CF047F9844200D110BD3D
:1022B00021461220BDE810401BF0C6BF10B50446F1
:1022C00014201CF039F9844200D110BD214614209D
:1022D000BDE810401BF0B8BF08B506201CF02CF973
:1022E000082828BF002040B208BD00BF08B5132051
:1022F0001CF022F940B220EAE07008BD10B5044697
:1023000006201CF019F9844200D110BD2146062098
:10231000BDE810401BF098BF08B507201CF00CF971
:1023200040B220EAE07008BD10B5044607201CF05A
:1023300003F9844200D110BD21460720BDE81040BA
:102340001BF082BF10B5044613201CF0F5F8844240
:1023500000D110BD21461320BDE810401BF074BF12
:1023600008B506201CF0E8F80346074A0720082BAA
:1023700028BF002313701CF0DFF840B2034B20EAA3
:10238000E070187008BD00BFACA80220AEA8022003
:10239000052008B51CF0D0F840B2002800DB08BDCD
:1023A000014B93F9000008BD82A8002010B5044637
:1023B00005201CF0C1F8844200D110BD2146052043
:1023C000BDE810401BF040BF08B500201CF0B4F879
:1023D000112828BF002008BD10B5044600201CF0BD
:1023E000ABF8844200D110BD21460020BDE810406A
:1023F0001BF02ABF08B5054B1B78102B03D8012012
:102400001CF09AF808BD002008BD00BFBBA8022040
:1024100010B5044601201CF08FF8844200D110BD95
:1024200021460120BDE810401BF00EBF08B5022078
:102430001CF082F8042828BF012008BD10B504460E
:1024400002201CF079F8844200D110BD2146022000
:10245000BDE810401BF0F8BE08B503201CF06CF876
:10246000022828BF002000F0010008BD10B5044676
:1024700003201CF061F8844200D110BD21460320E6
:10248000BDE810401BF0E0BE08B504201CF054F875
:10249000022828BF002000F0010008BD10B5044646
:1024A00004201CF049F8844200D110BD21460420CC
:1024B000BDE810401BF0C8BE082008B51CF03CF871
:1024C000642802D8323840B208BD002008BD00BFE1
:1024D00010B5044608201CF02FF83234E4B28442D0
:1024E00000D110BD21460820BDE810401BF0ACBE55
:1024F00008B50B201CF020F840B220EAE07008BDBF
:1025000010B504460C201CF017F8844200D110BD11
:1025100021460C20BDE810401BF096BE08B50C20EB
:102520001CF00AF840B220EAE07008BD10B504467D
:102530000D201CF001F8844200D110BD21460D2071
:10254000BDE810401BF080BE08B50D201BF0F4FF65
:1025500040B220EAE07008BD10B504460E201BF022
:10256000EBFF844200D110BD21460E20BDE8104093
:102570001BF06ABE08B50E201BF0DEFF40B220EA59
:10258000E07008BD10B504460F201BF0D5FF844253
:1025900000D110BD21460F20BDE810401BF054BEF5
:1025A00008B50F201BF0C8FF40B220EAE07008BD5C
:1025B00010B5044611201BF0BFFF844200D110BDAE
:1025C00021461120BDE810401BF03EBE08B5112089
:1025D0001BF0B2FF40B220EAE07008BD10B504461F
:1025E00010201BF0A9FF844200D110BD214610200D
:1025F000BDE810401BF028BE08B510201BF09CFF62
:1026000040B220EAE07008BD10B504460B201BF074
:1026100093FF844200D110BD21460B20BDE810403D
:102620001BF012BE092010B51BF086FF6F2800D1E9
:1026300010BD00201BF080FF18B1002108461BF0E0
:1026400003FE01201BF078FF18B1002101201BF0D0
:10265000FBFD02201BF070FF012803D001210220A6
:102660001BF0F2FD06201BF067FF18B100210620C9
:102670001BF0EAFD07201BF05FFF18B100210720C7
:102680001BF0E2FD13201BF057FF18B100211320AF
:102690001BF0DAFD08201BF04FFF322803D0322157
:1026A00008201BF0D1FD04201BF046FF18B10021CB
:1026B00004201BF0C9FD354B05201C781BF03CFFA6
:1026C000844203D0214605201BF0BEFD03201BF0F1
:1026D00033FF18B1002103201BF0B6FD0D201BF0C5
:1026E0002BFF012803D001210D201BF0ADFD0E2092
:1026F0001BF022FF18B100210E201BF0A5FD0C20BD
:102700001BF01AFF032803D003210C201BF09CFDB3
:102710000B201BF011FF18B100210B201BF094FDC2
:102720000F201BF009FF022803D002210F201BF00D
:102730008BFD10201BF000FF18B1002110201BF0B2
:1027400083FD11201BF0F8FE042803D00421112082
:102750001BF07AFD12201BF0EFFE18B100211220B1
:102760001BF072FD14201BF0E7FE18B100211420AD
:102770001BF06AFD09201BF0DFFE6F283FF458AF05
:102780006F210920BDE810401BF05EBD82A800202B
:10279000164B1B7810B5FBB1154A13780BB1013BF2
:1027A000137014484FF0000C134C034680F80BC014
:1027B000124A0B3024785CB993F800C08C4507D3DB
:1027C00093F801E092F801C083F800E082F800C0BD
:1027D000013301328342EED1094B0A4A1B68127859
:1027E00053F822001BF0FCFD10BD00BFA3A802207F
:1027F000A1A80220B4860220A0A80220C086022040
:10280000DC8A02209DA80220072811D9A0F1080324
:10281000152B11D9A0F11E03202B0BD9A0F13F03DA
:102820001C2B0BD95C38132834BF022007207047BB
:102830000020704706207047032070470120704732
:1028400006281AD9C31F0F2B15D9A0F11703102B77
:1028500017D9A0F12803132B11D9A0F13C03132B96
:1028600011D9A0F15003132B0FD96438142834BFA9
:1028700067206820704703207047132070470920A5
:1028800070470B2070470C2070470820704700BF2E
:1028900006281AD9C31F0F2B15D9A0F11703102B27
:1028A00017D9A0F12803132B11D9A0F13C03132B46
:1028B00011D9A0F15003132B0FD96438142834BF59
:1028C0006720682070470720704713207047092051
:1028D00070470B2070470C2070470820704700BFDE
:1028E000994B9A489A499B4ADFF858C3F0B5D8608B
:1028F0009948C3F8281158619848C3F80012D86164
:102900009748984998639848C3F82C11D86397481A
:10291000974918649748C3F83011D8649648974986
:1029200018659748C3F83411586596489649D86594
:102930009648C3F83C11186695489649986696489B
:10294000C3F84011D8669548954918679548C3F86B
:102950004411986794499548C3F84811D867944939
:102960009448C3F84C11C3F81C0193499348DFF80D
:10297000D8E2C3F820019248924C934D934F944E65
:10298000C3E955119349C3F85C11C3F82401C3F896
:102990007CE1DFF8B8E29049C3F864E1DFF8B0E227
:1029A000C3F88011C3F868E1DFF8A8E28B49C3F8E7
:1029B0006CE1DFF8A4E2C3F86011C3F874E1DFF85A
:1029C0009CE2C3F88040C3F884E1DFF894E2C3F8E6
:1029D0001022C3F888E1DFF88CE2C3F83042C3F874
:1029E00078E1DFF884E27E49C3F898E1DFF87CE221
:1029F0007C48C3F89CE1DFF878E2C3F8A0E1DFF897
:102A000074E2C3F8A4E1DFF870E2C3F8A8E1DFF8EC
:102A10006CE2C3F8B0E1DFF868E2C3F8ACE1DFF8DC
:102A200064E2C3F8F8E1DFF860E2C3F804E2DFF83B
:102A30005CE2C3F808E2DFF858E2C3F80CE2DFF822
:102A400054E2C3F8B4E1DFF850E2C3F818E2DFF86B
:102A50004CE2C3F81CE2DFF848E2C3F8B8E1DFF863
:102A600044E2C3F820E2DFF840E2C3F824E2DFF8F2
:102A70003CE2C3F828E2DFF838E2C3F8A0E2DFF86E
:102A800034E2C3F82CE2C3F84452C3F8B452564DB2
:102A9000C3F8B812C3F8B052544DC3F86442C3F837
:102AA0004052534D534CC3F84852534DC3F8BC02E7
:102AB000C3F8C852514DC3F85822C3F84C52504D78
:102AC000C3F8C442C3F850524E4D4F4CC3F8545251
:102AD0004E4DC3F834C2C3F85C524D4DC3F8A8C282
:102AE000C3F860524B4DC3F83872C3F8AC72C3F8E8
:102AF0003C62C3F8A462C3E9A610C3E99C1146492D
:102B0000C3F8C0124549C3E99A00C3F8CC1244483F
:102B10004449C3E9B501C3F8785243484349C3E97E
:102B2000BC22434AC3F8E412C3F8EC224149424AAA
:102B3000C3E9B704414C4248C3F8E842C3F8FC2358
:102B4000C3E9BE01F0BD00BF486B02209C84002099
:102B5000748500200C870020B0840020BC840020F5
:102B6000C484002080850020D0840020DC840020E4
:102B700088850020EC840020248600209885002091
:102B800030860020F8840020AC85002004850020D9
:102B900010850020B48500201885002020850020A5
:102BA000C485002030850020D48500204485002085
:102BB000E485002058850020F485002064850020ED
:102BC0006C85002034880020E4870020BC8700202A
:102BD000C887002000860020108600202086002064
:102BE000EC870020F887002054880020D887002038
:102BF00004880020688800200C88002014880020A9
:102C00001C88002024880020908800203088002024
:102C10003C880020488800206088002074880020BC
:102C20007C880020888800209C880020A4880020C0
:102C3000AC880020CC88002048840020B488002084
:102C4000BC880020B08700202C8600203886002019
:102C5000488600205886002068860020788600205C
:102C6000848600209086002098860020A886002078
:102C7000B8860020C8860020D8860020E88600207C
:102C8000AC8B0020F88600201C8B002004870020DD
:102C9000148700201C8700202C8700203C87002000
:102CA0005087002064870020708700207C870020E8
:102CB00090870020A487002010B4144B144C1548B2
:102CC0001549164AC3E9024000F17C40144CA0F5B6
:102CD0008320A0F25740C3E90012C3E9064011491E
:102CE00004F17274104A04F570441048C3E90412E8
:102CF0000F498A340F4AC3E908120F490F4AC3E942
:102D00000A40C3E90C125DF8044B7047486F02207B
:102D10001B5E6B1C6A6C5556FF050E0F1415171AB7
:102D20001E6980475760585F186766034F48865B87
:102D30005310875A4C4D1F685D61627E6D88898A89
:102D4000084A002301E0382B08D012F8011B5FFA73
:102D500083FC01338142F6D1604670474FF0000C8E
:102D600060467047486F0220132910B504460FDCF7
:102D7000002916DB132914D8DFE801F024181C28D9
:102D80001313202C3018131C34131313131313387C
:102D900067292FD0682904D118491BF09DFA2046D5
:102DA00010BD174920461BF097FAF8E715491BF0AC
:102DB00093FAF4E714491BF08FFAF0E713491BF07C
:102DC0008BFAECE712491BF087FAE8E711491BF090
:102DD00083FAE4E710491BF07FFAE0E70F491BF0A4
:102DE0007BFADCE70E491BF077FAD8E70D491BF0B8
:102DF00073FAD4E70C491BF06FFAD0E74C89002036
:102E00005889002008890020F488002014890020B7
:102E1000EC880020FC880020DC8800202C89002021
:102E20001C89002084840020408900200A4B8446AD
:102E300010B50C4686B007CB1B88206060466160E9
:102E400001A9A2600A22A3811BF0E6F901462046EF
:102E50001BF05EF906B010BD64890020054B1878A0
:102E60007E2803D80130C0B2187070470020187057
:102E7000704700BFAFA80220044B187818B1013882
:102E8000C0B2187070477F2018707047AFA802203A
:102E90001D4B1B7810B56BB11C4B1D4A1D49127898
:102EA0001B68097853F822001BF09AFA1A4B01228A
:102EB0001A7010BD194C94F89D2072B194F89C10B2
:102EC00059B194F89A1094F89E0084F89D3084F8D3
:102ED0009E3063185A7683F8590094F89920002A96
:102EE000E4D194F8A4100029E0D094F89A30234457
:102EF0005B7E822BDAD00A4B1878FFF749FC01235E
:102F000084F89930D2E700BFA3A80220DC8A02200F
:102F10009DA80220BFA80220C9A802207488022010
:102F2000B8A8022000231348134A144910B40370B0
:102F3000134C1448127809782370023A0170124C2D
:102F4000012A124823700370114C12482370037039
:102F500005D90123104A5DF8044B137070470F4BDD
:102F60000D4A5B5C5DF8044BDB43C3F3C013137085
:102F7000704700BFABA80220A5A802207FA80020B0
:102F8000BEA8022085A800209EA80220A2A8022098
:102F9000D6A80220A4A8022080A80020AC590020B6
:102FA00008B5FFF7BFFF034B0022C3E900229A6078
:102FB00008BD00BFB48602200749087850B1CB7A1B
:102FC0003BB90B235A1E1846D3B2CA5C002AF9D06B
:102FD00070470C20704700BFB48602200F4A10498A
:102FE00013780133DBB2C95C137081B90D4B0E4805
:102FF0001B781170C3560D4A002B92F9001007DBA5
:103000008B4202DD0131117070470023137070474D
:103010008B42FADA01391170704700BFBEA8022056
:10302000B48602207FA80020AC590020ABA8022063
:1030300010B4184C2378EBB917480B22C37A2270CE
:1030400043B90A23C25C591E9C46CBB2002AF9D070
:1030500084F800C0114B124A1B78D356114A002B3A
:1030600092F9001010DB8B4209DD013111705DF81F
:10307000044B7047013B23705DF8044B70470023FD
:1030800013705DF8044B70478B42F8DA0139117008
:10309000F2E700BFBEA80220B48602207FA800206D
:1030A000AC590020ABA802207A4B7B4AF0B41B78C5
:1030B000D056002812D1794A1378002B47D0D37A02
:1030C000002B44D10B23013BDBB2D15C0029FAD0A9
:1030D000002B3CD1724A1370F0BC704737DA714D47
:1030E000714C2B78002B00F0868023782BB16F4B2E
:1030F00093F90030834200F0AF806949674A0B784A
:103100000133DBB21E460B70D35C2BB90B701E462D
:1031100066490B7801330B701378002BDCD0D37A1F
:10312000002B40F0AF800B23591E1846CBB2D15C68
:103130000029F9D001388642CED15C4B93F900309A
:10314000002BC9D1002201232A702370C4E7554DFA
:10315000554C2B78002B2CD0237823B1534B93F96B
:103160000030002B78D04E4B4C4A1E780136F6B218
:10317000915D1E7039B91970002875D00E464B4903
:103180000B7801330B701378002BA5D0D37A002B6A
:1031900073D10B23591E1F46CBB2D15C0029F9D045
:1031A000013FBE4298D1414B93F90030834293D105
:1031B000C8E7237823B13D4B93F9003083424BD0CD
:1031C000374E3178002939D1344A0B21D37A317006
:1031D000002B54D10A23D75C03F1FF3C19465FFA58
:1031E0008CF3002FF7D0317000283FD12F4B49B21C
:1031F00093F9003029E023781BB12C4B93F9003070
:1032000053B3274E33785BBB244A0B23D17A3370F8
:10321000002939D1013BDBB2D15C0029FAD0234926
:1032200033700A78013A0A70002B7FF455AF1F4BB8
:1032300093F9003083427FF44FAF09E001391B4B13
:10324000C9B293F90030317049B20B437FF444AFF7
:1032500001232B7023703FE700232370F0BC7047DD
:10326000013BDBB23370DFE706468CE749B20F4A19
:103270001378013B5BB21370E7E70B2791E7002857
:10328000F5D129E70B2056E7084A1378013B137064
:1032900022E700BF85A80020AC590020B486022098
:1032A000BEA8022080A80020D6A80220ABA8022039
:1032B0006A4B6B4A70B51B78D056002811D1694A09
:1032C0001378002B3AD0D37A002B37D10B23013B54
:1032D000DBB2D15C0029FAD0002B2FD1624A1370E7
:1032E00070BD2BDA614C2378002B70D05E495D4AAB
:1032F0000B780133DBB21D460B70D35C2BB95C48F5
:103300001D460B700378013303701378002BE7D050
:10331000D37A002B40F09B800B231946013BDBB294
:10332000D05C0028F9D001398D42D9D1504B93F9A6
:103330000030002BD4D10023237070BD4B4C237878
:1033400033B34949474A0B780133DBB21E460B7051
:10335000D35C3BB90B7000286AD045491E460B78F8
:1033600001330B701378002BBAD0D37A002B69D1BC
:103370000B23591E1D46CBB2D15C0029F9D0013D6B
:10338000AE42ADD13A4B93F900308342D3D070BDF9
:10339000354D2B78002B38D1324A4FF00B0ED37AB3
:1033A00085F800E0002B4FD10A23D15C03F1FF3CEC
:1033B0009E465FFA8CF30029F7D085F800E00028DC
:1033C00038D12B4B4FFA8EFE93F9002025E0264D85
:1033D000297849BB0B23234A2B70D37A002B38D191
:1033E0000A231946D65C013BDBB2002EF9D0204AF5
:1033F00029701378013B137000297FF471AF1C4BC7
:1034000093F9003083420CD070BD013B184ADBB207
:1034100092F900204FFA83FE2B7052EA0E027FF4DD
:103420005FAF0123237070BD0139C9B22970E3E792
:10343000064697E74FFA8EFE0D4B1A78013A52B2C4
:103440001A70EAE70B259BE70028F5D170BD0B2128
:103450006AE7074A1378013B137070BD85A8002006
:10346000AC590020B4860220BEA8022080A800200B
:10347000ABA80220164A08B55078B8B9154B164AC1
:1034800016491B780870D056002806DB01301AF068
:1034900007FE134B40B2187008BDC0F101001AF0CE
:1034A000FFFD40420E4B40B2187008BD107840B18D
:1034B000D37A53B90B23591E1846CBB2D15C0029DD
:1034C000F9D01AF0EDFDC0B2D8E70C20F9E700BF43
:1034D000B48602207FA80020AC590020BEA802209C
:1034E000ABA802200B4B844610B50C4686B003CB2C
:1034F0001A889B782060604622810A22616001A9B7
:10350000A3721AF089FE014620461AF001FE06B0A9
:1035100010BD00BF74890020054B18787E2803D8A1
:103520000130C0B21870704700201870704700BF9B
:10353000B2A80220044B187818B10138C0B2187034
:1035400070477F2018707047B2A802200A4B93F88A
:103550009D207AB193F89C1061B193F89A100020E5
:1035600093F89EC0194483F89D0083F89E004A7624
:1035700081F859C0704700BF74880220F8B5224F07
:1035800015461E469DF818204FF0000CBE469EF8CA
:1035900001400EF1300E8C4206D00CF1010CBCF152
:1035A000040FF4D10020F8BD0CEB4C014FEA4C03A2
:1035B000090117F801E0864507D0DFF854E09EF8CE
:1035C00000E0BEF1000F00D07854944204D003EB29
:1035D0000C0107EB01114A7003EB0C040B4B2401A7
:1035E00053F8221004F11C0038441AF089FF3B19EB
:1035F00004F108003146DA783844AA4218BFDD7079
:103600001AF09EFD0120F8BD34890220486B02208B
:10361000CCA8022070B5154E0D4686B0044619465A
:10362000B6464FF0000C9EF801000EF1300EA0429D
:1036300015D00CF1010CBCF1040FF4D102A81AF062
:10364000B3FE214602AB2A4600940120FFF796FF05
:10365000044602A81AF004FF204606B070BD0CEB29
:103660004C0C06EB0C163276E8E700BF34890220DA
:1036700030B587B004460D46114602A81AF094FEF4
:10368000214602AB2A4600940120FFF777FF04464B
:1036900002A81AF0E5FE204607B030BD10B586B08E
:1036A0000446094902A81AF0BFFD0022214602ABD8
:1036B00010460094FFF762FF044602A81AF0D0FEFD
:1036C000204606B010BD00BF445D00204FF47F438C
:1036D00003807047F8B5114F4BF60163012604468D
:1036E00003800D463B781C3000F81A6C00F8193C3A
:1036F000062300F8043C0A4BD3F8F8121AF000FF36
:103700003A78084B04F1080053F822101AF0F8FE3A
:1037100084F82C6084F82D50F8BD00BF84A80020E8
:10372000486B0220509F0020F8B5114F4BF60173F3
:103730000126044603800D463B781C3000F81A6CC5
:1037400000F8193C172300F8043C0A4BD3F8FC128C
:103750001AF0D6FE3A78084B04F1080053F822100C
:103760001AF0CEFE84F82C6084F82D50F8BD00BF0E
:10377000B5A80220486B02208009026038B542F2E9
:1037800001030F4A4FF0000C04460380082312780F
:103790000D4603761C300B4B00F81ACC00F8192CA0
:1037A000D3F880101AF0ACFE074904F108001AF0B3
:1037B000A7FE012384F82D5084F82C3038BD00BFBB
:1037C000ACA80220486B0220445D002038B5104AA6
:1037D00048F20113002504460380083012780D4B8F
:1037E00000F8065C0D4600F8052CD3F8003A0A49AB
:1037F00023761AF085FE094B04F11C00D3F804125D
:103800001AF07EFE012384F82D5084F82C3038BD48
:10381000AEA80220288B0220445D0020486B0220C5
:1038200038B549F20122002304460D4602600830F3
:10383000037408491AF064FE074B04F11C00D3F826
:1038400048121AF05DFE012384F82D5084F82C30C4
:1038500038BD00BF445D0020486B022070B540F6C3
:1038600001620126154B0D4602802821867084B026
:1038700093F84E300446124AC370124B12781B68FC
:103880000171684653F8223093F85410FFF76CFA30
:10389000694604F108001AF043FE68461AF0E0FD9C
:1038A0007F22094B04F11C002276996B1AF028FE46
:1038B00084F82C6084F82D5004B070BD5CA5002005
:1038C0009DA80220DC8A0220486B0220F0B541F25C
:1038D00001420126154B7F27028085B08670044681
:1038E00093F844300D46124A0221C370114B1278EE
:1038F0001B680771684653F8223093ED1F0A1AF0CF
:10390000EBFB694604F108001AF00AFE68461AF05B
:10391000A7FD094B277604F11C00196D1AF0F0FD84
:1039200084F82C6084F82D5005B0F0BD5CA5002013
:103930009DA80220DC8A0220486B022001222F4B26
:1039400030B5827045F601652D4A89B00580044680
:1039500012780D461B6853F82230DA6B022A36D0F3
:10396000284A1421F7EE007A9FED270A92F84920A1
:1039700001710221C270684693ED117A77EEC77A21
:1039800027EE800A1AF0A8FB694604A81AF0D0FDB9
:103990001E4904A81AF0B0FC014604F108001AF010
:1039A000CFFB04A81AF0A4FB68461AF059FD7F2249
:1039B000174B04F11C002276D3F878111AF0A0FD01
:1039C000012384F82D5084F82C3009B030BD0D4906
:1039D000002291F875100271C17004A80D4A93F885
:1039E000403052F823101AF01FFC04A904F108001B
:1039F0001AF096FD04A81AF033FDD8E7DC8A0220FD
:103A00009DA802205CA500200000C84280890020FB
:103A1000486B0220409D00202DE9F04141F6012233
:103A20000126234B88B002800D468670044693F829
:103A30004C30204FC3703F23DFF88880037104A807
:103A400098F800203B6853F822301B4A996C1B4BB6
:103A50000029CCBF114619461AF056FD98F80020EF
:103A60003B68684604F1080753F822300A22996C33
:103A70001AF08EFD694604A81AF00AFD0146384680
:103A80001AF05EFB68461AF0EBFC04A81AF030FB53
:103A90007F220B4B04F11C002276996E1AF030FD48
:103AA00084F82C6084F82D5008B0BDE8F08100BF88
:103AB0005CA50020DC8A022084890020445D00206F
:103AC000486B02209DA8022070B540F601720126C5
:103AD000154B0D4602802821867084B093F84F3034
:103AE0000446124AC370124B12781B680171684673
:103AF00053F8223093F85510FFF736F9694604F170
:103B000008001AF00DFD68461AF0AAFC7F22094B46
:103B100004F11C002276D96B1AF0F2FC84F82C60B8
:103B200084F82D5004B070BD5CA500209DA8022033
:103B3000DC8A0220486B0220F0B541F201520126D6
:103B4000154B7F27028085B08670044693F8453078
:103B50000D46124A0221C370114B12781B6807717F
:103B6000684653F8223093ED200A1AF0B5FA6946F8
:103B700004F108001AF0D4FC68461AF071FC094BF5
:103B8000277604F11C00596D1AF0BAFC84F82C60F9
:103B900084F82D5005B0F0BD5CA500209DA8022042
:103BA000DC8A0220486B02202DE9F04141F6013207
:103BB0000126234B88B002800D468670044693F898
:103BC0004D30204FC3700723DFF88880037104A8AD
:103BD00098F800203B6853F822301B4AD96C1B4BE5
:103BE0000029CCBF114619461AF08EFC98F8002027
:103BF0003B68684604F1080753F822300A22D96C62
:103C00001AF0C6FC694604A81AF042FC0146384680
:103C10001AF096FA68461AF023FC04A81AF068FA1B
:103C20007F220B4B04F11C002276D96E1AF068FC3F
:103C300084F82C6084F82D5008B0BDE8F08100BFF6
:103C40005CA50020DC8A022084890020445D0020DD
:103C5000486B02209DA80220F0B541F201720123B9
:103C6000304E89B0304F044602800D4683703A785A
:103C7000336853F82230D3ED317AF5EEC07AF1EEA5
:103C800010FA3FDCD3ED327AF5EEC07AF1EE10FA9D
:103C900031DD264B264993F84630C37004A81AF04C
:103CA00033FC3A78336853F8223093ED320A02211C
:103CB00068461AF011FA694604A81AF0E9FB0146B1
:103CC00004F108001AF03CFA68461AF0C9FB04A88F
:103CD0001AF00EFA3F22174B7F2104F11C002271CB
:103CE0002176D96D1AF00CFC012384F82D5084F84C
:103CF0002C3009B0F0BD3F230F490830E3701AF0B3
:103D0000FFFBE7E7094B0D4993F84630C37004A861
:103D10001AF0FAFB3A78336853F8223093ED310AFF
:103D2000C5E700BFDC8A02209DA802205CA5002018
:103D300090890020486B022084840020888900201C
:103D400038B5194A46F60135012304460580002599
:103D50008370164B92F84700154AE07012781B6882
:103D600025710D4653F82230DB6BB3B1012B04F102
:103D700008000CBF0F4910491AF0C2FB0F4B02227A
:103D800004F11C002276D3F8AC111AF0B9FB012320
:103D900084F82D5084F82C3038BD094904F108000E
:103DA0001AF0AEFBEAE700BF5CA50020DC8A022027
:103DB0009DA8022098890020A0890020486B02203D
:103DC0008484002038B50122194B46F601250446AB
:103DD0008270002205800D4693F850002271E07039
:103DE00093F85030012B11D0022B1BD0A3B1114BF3
:103DF000022204F11C002276D3F8A8111AF080FBED
:103E0000012384F82D5084F82C3038BD0A4904F180
:103E100008001AF075FBEAE7084904F108001AF0F7
:103E20006FFBE4E7064904F108001AF069FBDEE7DE
:103E30005CA50020486B0220B4890020B0890020D6
:103E4000A88900201A4A70B592F8503001265825EA
:103E500084B0023B86704570044618BF01230D46AE
:103E60000221037092F85230C3703F2303716846F9
:103E700092F852200F4B03EB820393ED000A1AF0E5
:103E80002BF9694604F108001AF04AFB68461AF05B
:103E9000E7FA7F22084B04F11C002276D3F8601168
:103EA0001AF02EFB84F82C6084F82D5004B070BDFD
:103EB0005CA50020EC400020486B0220204A70B531
:103EC00092F850300126572588B0B3FA83F38670F4
:103ED00045700D465B090B210446037092F854307F
:103EE000184AC370184B12781B680171022153F8ED
:103EF0002230684693ED1C0A1AF0EEF8694604A8D1
:103F00001AF016FB114904A81AF0F6F9014604F15B
:103F100008001AF015F904A81AF0EAF868461AF031
:103F20009FFA7F220A4B04F11C002276D3F85C1121
:103F30001AF0E6FA84F82C6084F82D5008B070BDB1
:103F40005CA500209DA80220DC8A0220C0890020F8
:103F5000486B0220F0B5264F5525264A89B097F8C0
:103F60005030044645700D46A3F10203D2F85411B7
:103F70001C30214EB3FA83F35B0900F81C3C1AF0A5
:103F8000BFFA01233F2204A8A37097F856301B4FB5
:103F90002271E3703A78336853F8223093F8543042
:103FA000082B0CBF164917491AF0AEFA3A78336855
:103FB0006846022153F8223093ED1A0A1AF08CF861
:103FC000694604A81AF064FA014604F108001AF0E0
:103FD000B7F868461AF044FA04A81AF089F87F2264
:103FE000012384F82D50227684F82C3009B0F0BDDE
:103FF0005CA50020486B0220DC8A02209DA80220DC
:10400000C4890020CC89002038B5012246F601453C
:10401000154B044605800D46827093F8513093424B
:10402000C37011D0022B19D09BB1104B022204F1A6
:104030001C002276D3F8B0111AF062FA012384F83A
:104040002D5084F82C3038BD094908301AF058FA40
:10405000EBE7084908301AF053FAE6E7064908305A
:104060001AF04EFAE1E700BF5CA50020486B022081
:10407000B4890020B0890020A8890020184A70B5B2
:1040800092F8513001265F2584B0023B867045705E
:10409000044618BF01230D4602210370114B92F80C
:1040A000532003EB8203C270684693ED000A1AF0B6
:1040B00013F8694604F108001AF032FA68461AF05B
:1040C000CFF97F22084B04F11C002276D3F87C1133
:1040D0001AF016FA84F82C6084F82D5004B070BDE4
:1040E0005CA50020EC400020486B02201F4A70B500
:1040F00092F851300126602588B0B3FA83F38670B8
:10410000457004465B090D460221037092F8553054
:10411000174AC3706846174B12781B6853F8223051
:1041200093ED1D0A19F0D8FF694604A81AF000FAA9
:10413000114904A81AF0E0F8014604F1080019F04A
:10414000FFFF04A819F0D4FF68461AF089F97F220E
:104150000A4B04F11C002276D3F880111AF0D0F932
:1041600084F82C6084F82D5008B070BD5CA5002048
:104170009DA80220DC8A0220C0890020486B022012
:10418000F0B5254F5625254A89B097F85130044699
:1041900045700D46A3F10203D2F858111C30204E91
:1041A000B3FA83F35B0900F81C3C1AF0A9F9012368
:1041B00004A8A37097F857301A4FE3703A78336821
:1041C00053F8223093F85530082B0CBF1649174985
:1041D0001AF09AF93A7833686846022153F8223087
:1041E00093ED1B0A19F078FF694604A81AF050F9FC
:1041F000014604F1080019F0A3FF68461AF030F9EF
:1042000004A819F075FF7F22012384F82D5022762F
:1042100084F82C3009B0F0BD5CA50020486B02206A
:10422000DC8A02209DA80220C4890020CC890020BD
:1042300070B546F201720126164B0D460280002130
:10424000867084B093F85E300446134AC370134BF3
:1042500012781B680171684653F8223093F8CC102D
:10426000FEF782FD694604F108001AF059F9684624
:104270001AF0F6F87F220A4B04F11C002276D3F8DC
:104280009C111AF03DF984F82C6084F82D5004B08C
:1042900070BD00BF5CA500209DA80220DC8A022022
:1042A000486B022070B540F201320126164B0D46D4
:1042B00002800B21867084B093F85C300446134A68
:1042C000C370134B12781B680171032153F822301D
:1042D000684693ED340A19F0FFFE694604F10800C0
:1042E0001AF01EF968461AF0BBF80A4B7F2204F157
:1042F0001C00D96822761AF003F984F82C6084F83F
:104300002D5004B070BD00BF5CA500209DA8022008
:10431000DC8A0220486B022030B5254B46F201654D
:1043200001220446058089B082700B2293F85D005B
:104330000D462271E07093F86020C2B193F85D10D1
:1043400004F108001B4B03EB011119F0F9FE7F2269
:10435000194B04F11C002276D3F898111AF0D0F80A
:10436000012384F82D5084F82C3009B030BD134B54
:104370006846134A02211B68127853F8223093EDE5
:10438000350A19F0A9FE694604A81AF0D1F80D49BA
:1043900004A819F0B1FF014604F1080019F0D0FE9D
:1043A00004A819F0A5FE68461AF05AF8CFE700BF36
:1043B0005CA50020385A0220486B0220DC8A0220CB
:1043C0009DA80220D489002070B541F60162012623
:1043D000144B0D46028000218670044693F85F302E
:1043E0000830114A00F8053C104B12781B6800F8A1
:1043F000041C53F822300E4A93F8CD100D4B0029BF
:1044000014BF114619461AF07BF80B4B267604F1BF
:104410001C00996F1AF074F884F82C6084F82D5001
:1044200070BD00BF5CA500209DA80220DC8A022090
:10443000D889002084840020486B022070B546F69D
:1044400001120126144B0D4602800021867004469D
:1044500093F860300830114A00F8053C104B127890
:104460001B6800F8041C53F822300E4A93F82A10F7
:104470000D4B002914BF114619461AF041F80B4B99
:10448000267604F11C00D3F8A4111AF039F884F848
:104490002C6084F82D5070BD5CA500209DA80220E2
:1044A000DC8A0220D889002084840020486B022006
:1044B00070B546F601020126144B0D46028000211C
:1044C0008670044693F863300830114A00F8053CC2
:1044D000104B12781B6800F8041C53F822300E4A67
:1044E00093F829100D4B002914BF114619461AF0F4
:1044F00007F80B4B267604F11C00D3F8A01119F035
:10450000FFFF84F82C6084F82D5070BD5CA500205E
:104510009DA80220DC8A0220D88900208484002003
:10452000486B02201B4AF0B592F848300126152549
:104530007F27A3F102038670457085B0B3FA83F339
:1045400004460D4602215B09037092F84530124A79
:10455000C370124B12781B680771684653F82230FB
:1045600093ED200A19F0B8FD694604F1080019F02E
:10457000D7FF684619F074FF094B277604F11C0039
:10458000596D19F0BDFF84F82C6084F82D5005B0EA
:10459000F0BD00BF5CA500209DA80220DC8A02209F
:1045A000486B022038B51C4A41F601050123044638
:1045B000058000258370194B92F84800184AE07076
:1045C00012781B6825710D4653F8223093F8783025
:1045D000012B14D0022B18D1124904F1080019F054
:1045E0008FFF114B022204F11C002276196E19F084
:1045F00087FF012384F82D5084F82C3038BD0B49F7
:1046000004F1080019F07CFFEBE7094904F1080008
:1046100019F076FFE5E700BF5CA50020DC8A0220E8
:104620009DA80220DC890020486B0220E48900203C
:104630008484002070B541F601420126164B0D46D8
:1046400002803F21867084B093F872300446134A8A
:10465000C370134B12781B680171022153F822308A
:10466000684693ED160A19F037FD694604F1080013
:1046700019F056FF684619F0F3FE7F22094B04F14A
:104680001C002276196F19F03BFF84F82C6084F827
:104690002D5004B070BD00BF5CA500209DA8022075
:1046A000DC8A0220486B02201B4A70B592F8483021
:1046B000012614250446A3F102038670457084B0D8
:1046C000B3FA83F30D4602215B09037092F844307C
:1046D000124AC3703F20124B12781B682071684643
:1046E00053F8223093ED1F0A19F0F6FC694604F1E5
:1046F000080019F015FF684619F0B2FE7F22094B39
:1047000004F11C002276196D19F0FAFE84F82C6071
:1047100084F82D5004B070BD5CA500209DA8022037
:10472000DC8A0220486B0220F0B548F20102012623
:104730001D4BFF27028089B08670044693F85930DC
:104740000D461A4AC3701A4B12781B6807716846E7
:1047500053F822300A22D3ED217AFDEEE77A17EEE4
:10476000901A19F015FF694604A819F0E1FE1149E5
:1047700004A819F0C1FD014604F1080019F0E0FC9D
:1047800004A819F0B5FC684619F06AFE0A4B2776B2
:1047900004F11C00D3F8281119F0B2FE84F82C6043
:1047A00084F82D5009B0F0BD5CA500209DA8022022
:1047B000DC8A0220D4890020486B022070B544F2C4
:1047C00001720126164B0D4602800021867084B0CE
:1047D00093F858300446134AC370134B1278017192
:1047E0007F211B680176022153F82230684693ED41
:1047F000220A19F071FC694604F1080019F090FED4
:10480000684619F02DFE094B04F11C00D3F81C1169
:1048100019F076FE84F82C6084F82D5004B070BD39
:104820005CA500209DA80220DC8A0220486B0220A3
:10483000F0B5012241F20135484B0446484E494F3C
:104840002DED028B05808DB08270002293F85A30D6
:104850000D460271C3703A78336853F82230D3EDB5
:10486000237A414B93ED007AB4EE677AF1EE10FAB9
:1048700029D03E4B93ED007AB4EE677AF1EE10FA50
:104880001CD03B4B93ED007AB4EE677AF1EE10FA50
:104890001ED13849083019F033FE7F22364B04F11F
:1048A0001C002276D96C19F02BFE012384F82D50C0
:1048B00084F82C300DB0BDEC028BF0BD2F490830D0
:1048C00019F01EFEE9E72E49083019F019FEE4E759
:1048D0002C4904A819F018FE3A78336868469FED11
:1048E0002A8A53F822300A22D3ED237A67EE887A97
:1048F000FDEEE77A17EE901AC1F1640119F048FE57
:10490000694604A819F0C4FD204919F0F5FC3A786D
:104910003368064608A853F822300A22D3ED237ADA
:1049200067EE887AFDEEE77A17EE901A19F030FEFE
:1049300008A9304619F0ACFD154919F0DDFC014617
:1049400004F1080019F0FCFB08A819F089FD68467D
:1049500019F086FD04A819F0CBFB9EE75CA50020AA
:10496000DC8A02209DA8022064380020EC4600204A
:10497000E43C0020048A0020486B0220F8890020D3
:10498000EC890020108A00200000C842188A00200C
:104990001C8A002070B541F201020126164B0D461B
:1049A00002803F21867084B093F85B300446134A3E
:1049B000C370134B12781B680171022153F8223027
:1049C000684693ED240A19F087FB694604F1080054
:1049D00019F0A6FD684619F043FD7F22094B04F14A
:1049E0001C002276196C19F08BFD84F82C6084F879
:1049F0002D5004B070BD00BF5CA500209DA8022012
:104A0000DC8A0220486B022070B545F201020126C3
:104A1000164B0D4602800021867084B093F86630F4
:104A20000446134AC370134B12781B680171684621
:104A300053F8223093ED250AFCF7AAFF694604F1EA
:104A4000080019F06DFD684619F00AFD7F220A4B37
:104A500004F11C002276D3F8401119F051FD84F8BE
:104A60002C6084F82D5004B070BD00BF5CA5002000
:104A70009DA80220DC8A0220486B022070B545F216
:104A800001120126164B0D4602801421867084B057
:104A900093F867300446134AC370134B12781B68AF
:104AA0000171684653F8223093ED260AFCF770FF37
:104AB000694604F1080019F033FD684619F0D0FC8E
:104AC0007F220A4B04F11C002276D3F8441119F01E
:104AD00017FD84F82C6084F82D5004B070BD00BF21
:104AE0005CA500209DA80220DC8A0220486B0220E1
:104AF00070B545F201220126164B0D4602803F217A
:104B0000867084B093F868300446134AC370134B20
:104B100012781B680171022153F82230684693ED28
:104B2000270A19F0D9FA694604F1080019F0F8FCCF
:104B3000684619F095FC7F22094B04F11C0022768F
:104B4000D3F8481119F0DCFC84F82C6084F82D505F
:104B500004B070BD5CA500209DA80220DC8A022064
:104B6000486B022070B545F201320126164B0D4606
:104B700002801421867084B093F869300446134A89
:104B8000C370134B12781B680171684653F82230CA
:104B900093ED280AFCF7FCFE694604F1080019F0C1
:104BA000BFFC684619F05CFC7F220A4B04F11C0034
:104BB0002276D3F84C1119F0A3FC84F82C6084F809
:104BC0002D5004B070BD00BF5CA500209DA8022040
:104BD000DC8A0220486B022070B545F601220126CE
:104BE000164B0D4602800021867084B093F8653024
:104BF0000446134AC370134B12781B680171684650
:104C000053F8223093F8C010FEF7AEF8694604F16D
:104C1000080019F085FC684619F022FC7F220A4B37
:104C200004F11C002276D3F8681119F069FC84F8AD
:104C30002C6084F82D5004B070BD00BF5CA500202E
:104C40009DA80220DC8A0220486B022070B544F641
:104C500001520126164B0D4602800021867084B059
:104C600093F864300446134AC370134B12781B68E0
:104C70000171022153F82230684693ED2F0A19F092
:104C80002BFA694604F1080019F04AFC684619F04D
:104C9000E7FB7F22094B04F11C002276D3F8341184
:104CA00019F02EFC84F82C6084F82D5004B070BDEF
:104CB0005CA500209DA80220DC8A0220486B02200F
:104CC00030B5254B44F6014501220446058089B0E4
:104CD0008270122293F861000D462271E07093F801
:104CE0006320C2B193F8611004F108001B4B03EB81
:104CF000011119F025FA7F22194B04F11C002276CC
:104D0000D3F8301119F0FCFB012384F82D5084F8FE
:104D10002C3009B030BD134B6846134A02211B6882
:104D2000127853F8223093ED2E0A19F0D5F969461E
:104D300004A819F0FDFB0D4904A819F0DDFA01469D
:104D400004F1080019F0FCF904A819F0D1F968463B
:104D500019F086FBCFE700BF5CA50020385A02207F
:104D6000486B0220DC8A02209DA80220D489002002
:104D700070B541F601720126154B0D4602800021E7
:104D80008670044693F862300830124A00F8053CF9
:104D9000114B12781B6800F8041C53F822300F499D
:104DA000D3ED2D7A0E4BF5EE407AF1EE10FA08BFF6
:104DB000194619F0A5FB0B4B267604F11C00D96FA0
:104DC00019F09EFB84F82C6084F82D5070BD00BF54
:104DD0005CA500209DA80220DC8A0220D889002042
:104DE00084840020486B022070B51D4A012645F6D8
:104DF000013388B08670044603800D4692F86E3009
:104E00000221C37000230371684692F86E20154B8F
:104E100003EB820393ED000A19F05EF9694604A8DA
:104E200019F086FB104904A819F066FA014604F14E
:104E3000080019F085F904A819F05AF9684619F024
:104E40000FFB7F22094B04F11C002276D3F86C1172
:104E500019F056FB84F82C6084F82D5008B070BD12
:104E60005CA50020C8380020D4890020486B0220AF
:104E700070B545F601520126164B0D460280002101
:104E8000867084B093F86F300446134AC370134B96
:104E900012781B680171022153F82230684693EDA5
:104EA000390A19F019F9694604F1080019F038FBBC
:104EB000684619F0D5FA7F22094B04F11C002276CE
:104EC000D3F8741119F01CFB84F82C6084F82D5071
:104ED00004B070BD5CA500209DA80220DC8A0220E1
:104EE000486B022070B5184A012646F2011384B0BF
:104EF0008670044603800D4692F870300221C3701C
:104F000000230371684692F87020104B03EB820374
:104F100093ED000A19F0E0F8694604F1080019F071
:104F2000FFFA684619F09CFA7F22094B04F11C0035
:104F30002276D3F8841119F0E3FA84F82C6084F80F
:104F40002D5004B070BD00BF5CA50020EC400020D7
:104F5000486B022070B546F201220126164B0D4621
:104F600002800021867084B093F871300446134AA1
:104F7000C370134B12781B680171022153F8223061
:104F8000684693ED3B0A19F0A7F8694604F108005A
:104F900019F0C6FA684619F063FA7F22094B04F14A
:104FA0001C002276D3F8881119F0AAFA84F82C6034
:104FB00084F82D5004B070BD5CA500209DA802208F
:104FC000DC8A0220486B022070B5184A012645F69B
:104FD000011384B08670044603800D4692F84A306F
:104FE0000221C3703F230371684692F84A20104B98
:104FF00003EB820393ED000A19F06EF8694604F1A1
:10500000080019F08DFA684619F02AFA7F22094B38
:1050100004F11C002276D3F8641119F071FA84F8B7
:105020002C6084F82D5004B070BD00BF5CA500203A
:10503000EC400020486B022070B5124B012648F26C
:105040000172044686700D460280083093F877207E
:1050500000F8052C092200F8042C0B4A93F877304D
:1050600052F8231019F04CFA1122084B04F11C00DD
:105070002276D3F81C1219F043FA84F82C6084F8D5
:105080002D5070BD5CA5002028550020486B0220E3
:1050900070B544F601120126164B0D460280002120
:1050A000867084B093F86A300446134AC370134B79
:1050B00012781B680171684653F8223093ED290A73
:1050C000FCF766FC694604F1080019F029FA684605
:1050D00019F0C6F97F220A4B04F11C002276D3F89E
:1050E000241119F00DFA84F82C6084F82D5004B0C6
:1050F00070BD00BF5CA500209DA80220DC8A0220B4
:10510000486B022070B544F601320126164B0D465D
:1051100002801421867084B093F86B300446134AE1
:10512000C370134B12781B680171684653F8223024
:1051300093ED2A0AFCF72CFC694604F1080019F0EB
:10514000EFF9684619F08CF97F220A4B04F11C0034
:105150002276D3F82C1119F0D3F984F82C6084F856
:105160002D5004B070BD00BF5CA500209DA802209A
:10517000DC8A0220486B022070B544F601720126D9
:10518000164B0D4602803F21867084B093F86C3038
:105190000446134AC370134B12781B680171022135
:1051A00053F82230684693ED2B0A18F095FF6946B4
:1051B00004F1080019F0B4F9684619F051F97F229A
:1051C000094B04F11C002276D3F83C1119F098F930
:1051D00084F82C6084F82D5004B070BD5CA50020CC
:1051E0009DA80220DC8A0220486B022070B544F69C
:1051F00001020126164B0D4602801421867084B0F0
:1052000093F86D300446134AC370134B12781B6831
:105210000171684653F8223093ED2C0AFCF7B8FB75
:10522000694604F1080019F07BF9684619F018F98D
:105230007F220A4B04F11C002276D3F8201119F0CA
:105240005FF984F82C6084F82D5004B070BD00BF65
:105250005CA500209DA80220DC8A0220486B022069
:10526000F0B5144B012648F6011285B086700C2764
:105270000280044693F87A200D460771C270684692
:1052800093F87A1018F080FF694604F1080019F0CD
:1052900047F9684619F0E4F8074B277604F11C003B
:1052A000D3F8241219F02CF984F82C6084F82D50CE
:1052B00005B0F0BD5CA50020486B022070B5194B0D
:1052C00001264AF60102F2EE047A867084B002806A
:1052D000044693F87C200D4606710221C270684690
:1052E00093F87C3000EE103AB8EEC00A80EE270A40
:1052F00018F0F2FE694604F1080019F011F9684649
:1053000019F0AEF80A22084B04F11C002276D3F8FB
:10531000A01219F0F5F884F82C6084F82D5004B030
:1053200070BD00BF5CA50020486B022070B5194B12
:10533000012648F60122F2EE047A867084B00280DB
:10534000044693F87B200D4606710221C270684620
:1053500093F87B3000EE103AB8EEC00A80EE270AD0
:1053600018F0BAFE694604F1080019F0D9F8684649
:1053700019F076F80A22084B04F11C002276D3F8C3
:10538000281219F0BDF884F82C6084F82D5004B070
:1053900070BD00BF5CA50020486B022070B5124BA9
:1053A000012646F60152044686700D4602800830FA
:1053B00093F8732000F8052C002200F8042C0B4A07
:1053C00093F8733052F8231019F09AF80422084B1E
:1053D00004F11C002276D3F8B41119F091F884F886
:1053E0002C6084F82D5070BD5CA5002054A80020CE
:1053F000486B022070B5124B012646F60162044646
:1054000086700D460280083093F8742000F8052C51
:10541000002200F8042C0B4A93F8743052F8231041
:1054200019F06EF80422084B04F11C002276D3F820
:10543000B81119F065F884F82C6084F82D5070BD0F
:105440005CA5002054A80020486B022070B5124BC8
:10545000012647F60162044686700D460280083038
:1054600093F8762000F8052C002200F8042C0B4A53
:1054700093F8763052F8231019F042F80422084BC2
:1054800004F11C002276D3F8F81119F039F884F8E9
:105490002C6084F82D5070BD5CA50020E4560020DF
:1054A000486B022070B5124B012648F20162044697
:1054B00086700D460280083093F8782000F8052C9D
:1054C000092200F8042C0B4A93F8783052F8231084
:1054D00019F016F81122084B04F11C002276D3F8BB
:1054E000181219F00DF884F82C6084F82D5070BD56
:1054F0005CA5002028550020486B022070B5194B90
:10550000012640F2015284B08670044602800D46A6
:1055100093F84B20C27000220271684693F84B202A
:10552000114B03EB820393ED000A104BD3ED007A8D
:1055300020EE270AFCF72CFA694604F1080018F05F
:10554000EFFF684618F08CFF094B7F2204F11C0026
:105550005969227618F0D4FF84F82C6084F82D5015
:1055600004B070BD5CA50020044B0020E03C00208E
:10557000486B022070B5124B012648F60102044622
:1055800086700D460280083093F8792000F8052CCB
:10559000002200F8042C0B4A93F8793052F82310BB
:1055A00018F0AEFF084B267604F11C00D3F8201249
:1055B00018F0A6FF84F82C6084F82D5070BD00BF51
:1055C0005CA50020DC560020486B02200379C370E4
:1055D000704700BF0339F8B5A52900F2A880DFE8BD
:1055E00011F05903A6004F03A600A600A600A600CE
:1055F000A600A600A600A60045033B033103A600B3
:10560000A60027031D031303A6000903FF02A6003B
:10561000F502EB02E102A600D702CD02A600A60029
:10562000A600A600A600A600A600A600A600A6004A
:10563000A600A600A600A600A600A600A600A6003A
:10564000A600A600A600A600A600A600A600A6002A
:10565000A600A600A600A600A600A600A600A6001A
:10566000A600A600A600A600A600C302B902AF02CB
:10567000A600A5029B029102A60087027D0273028A
:105680005A025002A60046023C02320228021E02C2
:1056900014020A02A6000002F601EC01E201D801A0
:1056A000CE01A600A600A600C401BA01B001A60161
:1056B0009C01920188016701A600A600A600A60031
:1056C000A600A600A600A600A600A600A600A600AA
:1056D000A600A600A600A6004601A6003C01A60062
:1056E000A600A600A600A6001B01F300CC00C20085
:1056F000B800A600A600A600A600A600A600A60068
:10570000A600A600A600A600A600A600A600A60069
:10571000A600A600A600A600A600A600A600A60059
:10572000A600A600A600A600A600A600AE0000EBFC
:105730004000DE4B4FF47F4200011A52F8BDDB4BB4
:1057400000EB4000252103EB0010BDE8F840FFF717
:10575000B5BDD64B00EB4000252103EB0010BDE8A2
:10576000F840FFF7E3BDD14B00EB4000252103EBF0
:105770000010BDE8F840FFF773BDCC4E00EB4003CE
:1057800048F60102012706EB03151B01F2521C46E5
:10579000C74BC84A04F1080093F879303044AF7021
:1057A00052F82310EB7000232B7118F0A9FEC24BA6
:1057B00004F11C002F76D3F82012304418F0A0FE1C
:1057C00042F20153AB85F8BDB84E00EB400348F2FE
:1057D000017206EB03151B01F2521C460122B44B69
:1057E00004F1080093F87730AA703044B34AEB70A4
:1057F00052F8231009232B7118F082FEAE4A04F1EF
:105800001C001123D2F81C122B76304418F078FEBD
:1058100042F20153AB85F8BDA44E00EB400348F2C1
:10582000016206EB03151B01F2521C460122A04B3C
:1058300004F1080093F87830AA7030449F4AEB7066
:1058400052F8231009232B7118F05AFE9A4A04F1DA
:105850001C001123D2F81812D6E7944B00EB40003D
:10586000252103EB0010BDE8F840FEF75DBF8F4E29
:1058700000EB400347F6016206EB03151B01F252F1
:105880001C4601228A4B04F1080093F87630AA7076
:1058900030448B4AEB7052F8231000232B7118F020
:1058A0002FFE854A04F11C000423D2F8F811ABE75F
:1058B0007E4E00EB400346F6015206EB03151B013A
:1058C000F2521C4601227A4B04F1080093F873301F
:1058D000AA7030447B4AEB7052F8231000232B71DE
:1058E00018F00EFE744A04F11C000423D2F8B4111F
:1058F0008AE76E4B00EB4000252103EB0010BDE86A
:10590000F840FEF781BB694B00EB4000252103EB1B
:105910000010BDE8F840FEF713BA644B00EB4000FE
:10592000252103EB0010BDE8F840FEF74BBA5F4BB2
:1059300000EB4000252103EB0010BDE8F840FEF726
:105940007DBD5A4B00EB4000252103EB0010BDE864
:10595000F840FEF7ADBD554B00EB4000252103EBB1
:105960000010BDE8F840FEF763BC504B00EB400070
:10597000252103EB0010BDE8F840FEF7CDBC4B4BF2
:1059800000EB4000252103EB0010BDE8F840FFF7D5
:10599000E1BA464B00EB4000252103EB0010BDE8C7
:1059A000F840FFF79FBA414B00EB4000252103EB85
:1059B0000010BDE8F840FEF799BB3C4B00EB4000FF
:1059C000252103EB0010BDE8F840FEF757BB374B2D
:1059D00000EB4000252103EB0010BDE8F840FDF787
:1059E000ADBF324B00EB4000252103EB0010BDE8BA
:1059F000F840FFF73DBA2D4B00EB4000252103EBAB
:105A00000010BDE8F840FFF7EFB9284B00EB40006D
:105A1000252103EB0010BDE8F840FFF7DDB8234B6C
:105A200000EB4000252103EB0010BDE8F840FFF734
:105A3000CBBA1E4B00EB4000252103EB0010BDE864
:105A4000F840FEF7FFB9194B00EB4000252103EBAE
:105A50000010BDE8F840FEF731BA144B00EB4000EF
:105A6000252103EB0010BDE8F840FEF789BB0F4B82
:105A700000EB4000252103EB0010BDE8F840FEF7E5
:105A800069BA0A4B00EB4000252103EB0010BDE88A
:105A9000F840FFF767B8054B00EB4000252103EB0A
:105AA0000010BDE8F840FFF723B800BF348902209A
:105AB0005CA50020DC560020486B02202855002001
:105AC000E456002054A80020774B00EB400025212D
:105AD00003EB0010BDE8F840FEF7D0BF724B00EBBF
:105AE0004000252103EB0010BDE8F840FEF78CBF15
:105AF0006D4B00EB4000252103EB0010BDE8F840A2
:105B0000FFF73ABB684B00EB4000252103EB001088
:105B1000BDE8F840FFF79AB8634B00EB4000252141
:105B200003EB0010BDE8F840FFF7CAB85E4B00EB8E
:105B30004000252103EB0010BDE8F840FFF7E2BA72
:105B4000594B00EB4000252103EB0010BDE8F84065
:105B5000FFF79EBA544B00EB4000252103EB0010E9
:105B6000BDE8F840FFF742BB4F4B00EB400025215A
:105B700003EB0010BDE8F840FEF720BE4A4B00EBF7
:105B80004000252103EB0010BDE8F840FFF7F0B816
:105B9000454B00EB4000252103EB0010BDE8F84029
:105BA000FEF712BC404B00EB4000252103EB001038
:105BB000BDE8F840FEF73EBD3B4B00EB4000252121
:105BC00003EB0010BDE8F840FDF7EEBF364B00EBED
:105BD0004000252103EB0010BDE8F840FDF71CBF95
:105BE000314B00EB4000252103EB0010BDE8F840ED
:105BF000FEF7D8BC2C4B00EB4000252103EB001036
:105C0000BDE8F840FEF728B8274B00EB40002521FF
:105C100003EB0010BDE8F840FDF78EBF224B00EB10
:105C20004000252103EB0010BDE8F840FDF74EBE13
:105C30001D4B00EB4000252103EB0010BDE8F840B0
:105C4000FEF7F6BD184B00EB4000252103EB0010DA
:105C5000BDE8F840FEF79EBE134B00EB4000252147
:105C600003EB0010BDE8F840FDF72EBF0E4B00EB34
:105C70004000252103EB0010BDE8F840FDF7EEBD24
:105C8000094B00EB4000252103EB0010BDE8F84074
:105C9000FFF734BC044B00EB4000252103EB001060
:105CA000BDE8F840FEF7FEBA348902202DE9F0473E
:105CB00084B02E2800F28C80DFE810F0150AC609A7
:105CC000A1098A003909E0088A0090088A007D0845
:105CD0006A0855083F082C0819080608F307E0076A
:105CE000CD07FD06EA069A0687066507360774069D
:105CF00061062F00D4055005E80472041404D20391
:105D00008A008A0053033B03F8028A008A00AA0231
:105D1000020278013001DF008D00DC4C48F601738F
:105D2000DB4F0125A4F8603003233A7804F17C00AE
:105D3000D84E84F86320D6F83C1284F8783084F882
:105D4000625018F0DDFB3A78D34B04F1680053F849
:105D5000221018F0D5FB002348F60151CF4A84F8F1
:105D60008C3023701023A4F89010117884F892508E
:105D700084F8931084F8A830002941F01B82C849A8
:105D800004F1980018F0BCFBD6F83412C54818F09E
:105D9000B7FB002248F60163C34984F8BC20012206
:105DA00009782386102384F8331084F8322084F88D
:105DB0004830002941F0F281BC49BD4818F0A0FBF1
:105DC000D6F83812BB4818F09BFB002384F85C30EF
:105DD00004B0BDE8F087AD4C49F601420423AD4D57
:105DE000226604F1680084F878300027B249012661
:105DF00018F086FBD5F8701204F17C0018F080FBD7
:105E000043F2010249F20123AB49A4F88C2004F1CA
:105E100008002360277618F073FBD5F8481204F1C8
:105E20001C0018F06DFB49F60123A34904F198000A
:105E3000C4F890304523A68584F8A83018F060FB9C
:105E4000D5F8681204F1AC0018F05AFB42F6017361
:105E5000994904F13800A4F8BC3048F2012384F8D1
:105E60003270238618F04CFBD5F8081204F14C0070
:105E700018F046FBA4F85C60AAE7844C49F601538D
:105E80000026844D236604F168008B49012784F8BD
:105E9000786018F035FBD5F8741204F17C0018F026
:105EA0002FFB43F2012249F201238349A4F88C20FD
:105EB00004F108002360267618F022FBD5F848127A
:105EC00004F11C0018F01CFB49F601337A4904F177
:105ED0009800C4F890304523A78584F8A83018F0BE
:105EE0000FFBD5F86C1204F1AC0018F009FB43F27B
:105EF0000113714904F13800A4F8BC3049F601637C
:105F000084F83260238618F0FBFAD5F8781204F191
:105F10004C0018F0F5FAA4F85C7059E75B4C0025CA
:105F20005C4E082749F2017304F17C00D6F85C123C
:105F30004FF00108A4F8603084F8625084F878705B
:105F400018F0DEFA49F201235B49E0192360257657
:105F5000A4F88C8018F0D4FAD6F8481204F11C008A
:105F600018F0CEFA49F60113D6F8641204F1AC0029
:105F7000A4F89030A4F82C8084F8925084F8A8708B
:105F800018F0BEFA49F60103D6F8601204F14C008D
:105F90002386A4F8BC8084F8325084F8787018F016
:105FA000AFFA42F60153A4F85C3011E7374C4AF6D9
:105FB0000113DFF808810125364E04F17C0098F8C2
:105FC0002E20A4F860300323D6F8A41284F86320AE
:105FD00084F8783084F8625018F092FA98F82E20FD
:105FE0002D4B04F1680053F8221018F089FA0023B1
:105FF000314904F1080084F88C30237649F20123FA
:10600000236018F07DFAD6F8481204F11C0018F04D
:1060100077FA42F2014398F82C10A3854AF601233F
:1060200084F89250A4F89030102384F8931084F8E8
:10603000A830002941F0A580194904F1980018F012
:106040005FFAD6F8A812174818F05AFA00224AF652
:10605000013398F82D1084F8BC20012223861023E8
:1060600084F8331084F8322084F84830002941F055
:106070007C800E490E4818F043FAD6F8AC120D4851
:1060800018F03EFA002384F85C30A1E6348902203F
:1060900083A80220486B022070550020B8A8022077
:1060A000248A0020E0890220BBA8022084840020EA
:1060B0006C89022080890220445D00200088022033
:1060C000DFF870930123D64C49F60172DFF88C8318
:1060D0004F4684F86230494698F858500023A4F897
:1060E000602002E0382B01F0C68011F8012BD8B2F5
:1060F00001339542F6D1CB4E002584F8630056F863
:106100002210C94818F0FCF93723C84984F86450B4
:1061100084F87830C64818F0F3F942F601222B468D
:10612000C449A4F88C204AF2010298F85950228000
:106130000122A27002E0382B01F0A18011F8012B9E
:10614000D8B201339542F6D156F822100025E070FE
:10615000B94818F0D5F93723B44925712376B748E3
:1061600018F0CEF942F601222B46B249A2854AF236
:10617000011298F85A50A4F89020012284F8922035
:1061800002E0382B01F07F8011F8012BD8B20133E7
:106190009542F6D156F82210002584F89300A848BD
:1061A00018F0AEF93723A14984F8A830A54884F83F
:1061B000945018F0A5F942F6012298F85B102B468E
:1061C000A4F8BC204AF201222286012284F832205F
:1061D00002E0382B01F04B8019F8012BDDB20133BE
:1061E0009142F6D156F82210974884F8335018F0AF
:1061F00087F9372300228D4984F84830934884F882
:10620000342018F07DF942F60123A4F85C30DFE574
:10621000834C002549F20123824E844904F1080091
:106220002360012784F86050257618F069F9D6F8C4
:10623000481204F11C0018F063F9854B42F2014248
:10624000D6F880101B7804F1AC00A28542F201025E
:1062500084F893300823A4F8902084F8A83084F8B8
:10626000925018F04DF9714904F1980018F048F96E
:10627000784B48F201126D491B7804F138002286F0
:1062800084F83330744B84F83250D3F8003A84F8F1
:10629000BC7084F8483018F033F9D6F8041204F1D1
:1062A0004C0018F02DF984F85C7091E55C4C4AF2D2
:1062B000016204235B4D226604F1680084F87830A3
:1062C00000265A4918F01CF9D5F8981204F17C0000
:1062D00018F016F942F2017249F201235349A4F869
:1062E0008C2004F108002360267618F009F9D5F80F
:1062F000481204F11C0018F003F94AF2017342F24B
:1063000001424A49C4F890304523A28504F198001F
:1063100084F8A83018F0F4F8D5F89C1204F1AC0019
:1063200018F0EEF842F6010384F83060A4F8BC30AF
:106330004EE54A4C022094F85810FFF74BF994F8B8
:1063400059100020FFF746F994F85A100320FFF780
:1063500041F994F85B10012004B0BDE8F047FFF765
:1063600039B92F4C002549F201132E4E2F4904F163
:106370006800A4F860307F2784F8625018F0C0F8F5
:10638000D6F8441204F17C0084F8635018F0B8F891
:1063900042F6011249F201232449A4F88C2004F1A9
:1063A00008002360257618F0ABF8D6F8481204F1FF
:1063B0001C0018F0A5F8012249F201031B49A2852F
:1063C00004F19800A4F8903084F8925018F098F8EE
:1063D000D6F8401204F1AC0084F8935084F8A87009
:1063E00018F08EF842F20153104904F13800A4F875
:1063F000BC304BF6015384F83250238618F080F8F5
:10640000D6F8F41204F14C0084F8335084F8487044
:1064100018F076F842F20143A4F85C30D8E400BFEB
:1064200034890220486B02209C890220445D0020B0
:10643000B0890220486F02203C8902205089022046
:10644000CC890220E08902206C8902208089022008
:10645000ACA80220AEA80220288B022000880220CF
:10646000B94C4AF601630025B84E236604F1680072
:10647000B74984F8785018F043F8D6F8B81204F108
:106480007C0018F03DF842F2013249F20123B04994
:10649000A4F88C2004F108002360257618F030F869
:1064A000D6F8481204F11C0018F02AF84AF60173D5
:1064B00041F60172A649C4F890304523A28504F143
:1064C000980084F8A83018F01BF8D6F8BC1204F134
:1064D000AC0018F015F842F2012384F83050A4F80B
:1064E000BC3075E4984C00254AF60153974E984904
:1064F00004F16800A4F860307F2784F8625017F038
:10650000FFFFD6F8B41204F17C0084F8635017F052
:10651000F7FF41F601724BF201238D49A4F88C205C
:1065200004F108002360257617F0EAFFD6F8C812B8
:1065300004F11C0017F0E4FF01224AF601438449EC
:10654000A28504F19800A4F8903084F8925017F0D6
:10655000D7FFD6F8B01204F1AC0084F8935084F859
:10656000A87017F0CDFF41F60163794904F13800B6
:10657000A4F8BC304BF6014384F83250238617F060
:10658000BFFFD6F8F01204F14C0084F8335084F8C1
:10659000487017F0B5FF42F20103A4F85C3017E42D
:1065A000694C00254BF201036A4E0121684696EDC5
:1065B000050AA4F8603084F8625017F08DFD694632
:1065C00004F16800614F17F0ABFF684617F048FF11
:1065D000D6ED057AFF22D7F8C012FCEEE77A04F177
:1065E0007C0084F8782017EE903A84F863307823A2
:1065F00084F8643017F084FF337E574941F6017602
:10660000013B04F10800A57001EB0311E3704BF2AC
:106610000163A4F88C6023803F23237617F090FD5C
:10662000D7F8D81204F11C0017F06AFF4BF201539F
:10663000474904F19800A4F89030A68584F8925058
:1066400017F05EFFD7F8D41204F1AC0084F8935031
:1066500084F8A85017F054FF4BF201333C4904F181
:1066600038002386A4F8BC6084F8325017F048FF45
:10667000D7F8CC1204F14C0084F8335084F8485019
:1066800017F03EFFA4F85C60FFF7A2BB2E4C4BF264
:10669000010301212F4DA4F86030684695ED050AED
:1066A00041F6016784F8621017F016FD694604F19F
:1066B0006800264E17F034FF684617F0D1FED5ED7E
:1066C000057A7822FF21FCEEE77A04F17C0084F859
:1066D00078100025D6F8C01217EE903A84F864209E
:1066E00084F8633017F00CFF4BF201227F23184926
:1066F000226004F108002376A4F88C7017F000FFE4
:10670000D6F8C81204F11C0017F0FAFE42F2010399
:106710000F4904F19800A3854BF2011384F89250BD
:10672000A4F8903017F0ECFED6F8C41204F1AC00D7
:1067300084F8935084F8A85017F0E2FEA4F8BC70D7
:1067400084F83050FFF744BB34890220486B0220A4
:10675000445D00207488022054740220DF4D01271C
:10676000DF4C4BF60113DF4A4FF00408297804F19F
:106770006800A4F860304FF0020A52F8211084F843
:10678000627017F0BDFE0623D74E04F17C002A7814
:1067900041F6015584F878300323D6F8E41284F8E2
:1067A000632084F8643017F0ABFE4BF60133CF4A18
:1067B00004F108002380CE4BDFF864931B78A770A8
:1067C00052F82310E370A4F88C5017F099FED6F815
:1067D000EC1204F11C0084F8188084F804A017F06F
:1067E0008FFE99F80020C34B04F19800A58553F85B
:1067F00022104BF6010384F89270A4F8903017F041
:106800007FFE99F80030DFF81C9304F1AC0084F8A7
:1068100093300923D6F8E01284F8A83084F894A0C5
:1068200017F06EFE99F80020B34B04F1380084F89D
:10683000327053F822104BF60123A4F8BC50238683
:1068400017F05EFE99F80030D6F8E81204F14C001B
:1068500084F8488084F8333017F052FEA4F85C5076
:10686000FFF7B6BA9E4C4BF201030127A34DA4F8E3
:106870006030022195ED050A684684F8627017F0D1
:106880002BFC694604F16800974E17F049FE6846F4
:1068900017F0E6FDD5ED057AFF22D6F8C012FCEE22
:1068A000E77A04F17C0084F87820782241F60145EB
:1068B000DFF86C8217EE903A84F8642084F8633035
:1068C00017F01EFE4BF201738D4A04F1080023807D
:1068D0008C4BA7701B78A4F88C5052F82310E370EF
:1068E00017F00EFE0523D6F8DC1204F11C00237607
:1068F0000023237117F004FE98F800207D4B04F16B
:106900009800A58553F822104BF6010384F8927085
:10691000A4F8903017F0F4FD98F80030DFF8048206
:1069200004F1AC0084F893300923D6F8E01284F81F
:10693000A830022384F8943017F0E2FD98F8002084
:106940006D4B04F1380084F8327053F822104BF686
:106950000123A4F8BC50238617F0D2FD98F800203C
:106960000423D6F8E81204F14C0084F8332084F8AC
:10697000483017F0C5FDA4F85C50FFF729BA584C11
:106980004FF47F431A212046A4F8603020F8903B52
:10699000FEF7A8FA1A2104F1300004B0BDE8F04770
:1069A000FEF7D8BA4E4C4FF47F4319212046A4F885
:1069B000603020F8903BFEF717FA192104F13000FF
:1069C00004B0BDE8F047FEF753BA16214E48FEF773
:1069D0005FFB16214248FEF795FB16214B48FEF758
:1069E000CBFB16214A4804B0BDE8F047FEF7FEBBDA
:1069F0003B4C1521474F4FF0010804F130003A4E4F
:106A0000FEF7E2FA46F6016297F8743004F1980056
:106A1000A4F89020002284F8933041F2015584F8C4
:106A200094203D4A84F8928052F8231017F068FDB4
:106A30000423D6F8B81104F1AC0084F8A83017F09C
:106A40005FFD15212046A4F8BC50FEF737FC092253
:106A500097F8773004F1680084F864202F4A84F8AE
:106A6000633052F8231048F2017384F86280A4F86E
:106A7000603017F045FD1123D6F81C1204F17C009C
:106A800084F8783017F03CFDA4F88C50FFF7A0B9DB
:106A900014211E48FEF7A0F814211D48FEF7D6F871
:106AA00014211948FEF70CF914210D4804B0BDE873
:106AB000F047FEF75DB913211448FEF78DF8132156
:106AC0001348FEF7C3F813210F48FEF7F9F8132116
:106AD000034804B0BDE8F047FDF7EABC7FA80020FA
:106AE00034890220C0560020486B0220AC5600209A
:106AF0007DA800201C580020D45300207488022058
:106B0000E8530020A5A8022094890220C48902200D
:106B1000648902205CA5002054A80020285500208C
:106B20007EA800209FA80220C84C4FF47F43182164
:106B300001252046A4F8603020F8903BFEF7DEFCEB
:106B4000C34BC44A48F6010193F8793004F1380088
:106B5000218684F8333052F82310002384F8325011
:106B600084F8343017F0CCFCBB4B04F14C0084F8B3
:106B70004850D3F8201217F0C3FC41F60103A4F8E3
:106B80005C30FFF725B9B14C4FF47F42B04F48F26B
:106B9000016122804FF0010897F8783004F1680015
:106BA000AE4A41F20175A4F860104FF0000A52F8A5
:106BB00023104FF0040984F86330092384F86280BD
:106BC00084F8643017F09CFCA34E112304F17C0080
:106BD000D6F8181284F8783017F092FC97F87330D2
:106BE0009F4A04F1980084F8933052F8231046F637
:106BF000015384F89280A4F89030A4F88C5084F863
:106C000094A017F07DFCD6F8B41104F1AC0084F820
:106C1000A89017F075FC97F87630924A04F1380086
:106C200084F8333052F8231047F6016384F8328039
:106C3000238684F834A0A4F8BC5017F061FCD6F881
:106C4000F81104F14C0084F8489017F059FCA4F8AE
